:020000040000FA
:100000000C944F210C9461310C943A310C9477216B
:100010000C9477210C9477210C9477210C94772100
:100020000C9477210C9477210C9477210C947721F0
:100030000C9477210C9477210C9477210C947721E0
:100040000C94F0300C9477210C94BE300C949830C2
:100050000C9477210C9477210C9477210C947721C0
:100060000C9477210C94772100853CD7F222000074
:1000700000002A3A0023F7220011133918040D0159
:10008000800003C00003C000E3C300F18780F88F45
:1000900080FC9F807EBF0003C00003C0007EBF00C5
:1000A000FC9F80F88F80F18780E1C30003C00003CC
:1000B000C00003C0000180002929F62D02F90000CC
:1000C0001C00000000001C00000000001C000000DC
:1000D00000001C00000000001C00000000001C00CC
:1000E000000000001C00000000001C0000000000D8
:1000F0001C00000000001C00000000001C000000AC
:1001000000001C00000000001C00000000001C009B
:10011000000000001C00000000001C0000000000A7
:100120001C00000000001C00000000001C0000007B
:10013000FFFFFFFFFF80FFFFFFFFFF80FFFFFFFFCD
:10014000FF8000001C00000000001C0000000000F8
:100150001C00000000001C00000000001C0000004B
:1001600000001C00000000001C00000000001C003B
:10017000000000001C00000000001C000000000047
:100180001C00000000001C00000000001C0000001B
:1001900000001C00000000001C00000000001C000B
:1001A000000000001C00000000001C000000000017
:1001B0001C000000090F1E0D02F87E00FF00FF80EA
:1001C000FF80FF807F8001800180018003000200AA
:1001D00006001C00380060000C050A12030AFFF03C
:1001E000FFF0FFF0FFF0FFF00806060E03017EFFB0
:1001F000FFFFFF7E102C581603F70007000F000EBC
:10020000000E000E001E001C001C003C00380038D0
:1002100000780070007000F000E000E000E001E015
:1002200001C001C003C003800380078007000700EE
:100230000F000E000E000E001E001C001C003C00F3
:1002400038003800780070007000F000E000E00036
:10025000E0001723691C020000100000FE0003C725
:10026000800783C00F01E00F01E01F01F03F01F89C
:100270003F01F87F01F87F01FC7F01FC7F01FCFF5B
:1002800001FEFF01FEFF01FEFF01FEFF01FEFF0177
:10029000FEFF01FEFF01FEFF01FEFF01FE7F01FCEC
:1002A0007F01FC7F01FC7F01FC3F01F83F01F81F4B
:1002B00001F00F01E00F01E00783C003C78000FEDB
:1002C000001022441C060000F000F001F007F0FFCF
:1002D000F007F007F007F007F007F007F007F00766
:1002E000F007F007F007F007F007F007F007F00756
:1002F000F007F007F007F007F007F007F007F00746
:10030000F007F007F007F0FFFFFFFF1522661C0360
:100310000107FF000E0FC01C07E03807F07803F05C
:100320007803F8F803F8FC03F8FF03F8FF03F8FF7D
:1003300007F87F07F03F0FF00C0FE0001FC0003FF1
:1003400080007F0000FC0001F00003C00007800077
:100350000E00180C00181800183000186000186FF4
:10036000C0387FFFF8FFFFF0EFFFF0C3FFF0C1FFE1
:10037000E0C0FFC0C03F801622661C030107FF00DB
:100380000E0FC01C07E03807F07803F07C03F87EFE
:1003900003F87F03F87F03F87F03F83F03F01E03A1
:1003A000F00007E00007C0000F0007F800001F8002
:1003B000000FC00007E00007F00003F80003F83E5C
:1003C00003FC7F03FCFF03FCFF03FCFF03FCFE03B5
:1003D000FCFC03F8F807F87807F0380FE01E1FC0A0
:1003E0000FFF001722661C02000007C0000FC000AC
:1003F0000FC0001FC0003FC0003FC0007FC0007F93
:10040000C000FFC000DFC001DFC0019FC0039FC06C
:10041000071FC0061FC00E1FC00C1FC01C1FC01826
:100420001FC0381FC0701FC0601FC0E01FC0FFFF8B
:10043000FE001FC0001FC0001FC0001FC0001FC063
:10044000001FC0001FC0001FC007FFFC07FFFC15F6
:1004500022661C04002000C03C07803FFF803FFF55
:10046000003FFE003FF8003FE0003F00003000008A
:1004700030000030000030000030000031FC003659
:100480003F003C0FC0380FE0300FE02007F00007BE
:10049000F00007F80007F80807F83E07F87E07F8AD
:1004A000FE07F8FE07F8FE07F0F807F0F007E07027
:1004B0000FC0300FC01C1F000FFC001622661C036B
:1004C0000100FF8003C0C007C0600F80F01F83F0F1
:1004D0001F07F03F0FF03F0FF07F0FE07F07C07F57
:1004E00003007F0000FF0000FF0000FF3F00FFFF50
:1004F000C0FFC3E0FF83F0FF03F8FF01F8FF01FC3A
:10050000FF01FCFF01FC7F01FC7F01FC7F01FC7F00
:1005100001FC3F01F83F01F81F01F80F81F007834C
:10052000E003C3C001FF001422661C050147E0E0A0
:10053000CFF0E0DFF870FFFC30FFFE30FFFFF0FF90
:10054000FFF0E01FB0C00020C000608000608000AD
:10055000C08001C0000180000380000700000F0080
:10056000000E00001E00003C00007C0000FC0001AA
:10057000FC0001F80003F80003F80007F80007F892
:100580000007F80007F80007F80007F80003F80074
:1005900003F0001722661C030101FF800700C00C56
:1005A00000601C00303800183800187800187800F7
:1005B000187C00187E00187F00307FC0207FF0601C
:1005C0003FFF803FFF001FFFC00FFFF007FFF80F46
:1005D000FFF8183FFC300FFC7003FE6000FEE000E7
:1005E0007EE0003EE0001EE0001EE0000CF0001C7B
:1005F0007000183800181C00300F00C003FF0016F0
:1006000022661C030103FE000F0F001F07803E0738
:10061000C07E03E07E03F07E03F0FE03F8FE03F8E5
:10062000FE03F8FE03F8FE03FCFE03FCFE03FC7E63
:1006300003FC7F07FC3F07FC1F0FFC0FFFFC03F3CD
:10064000FC0003FC0003FC0003F80703F81F83F819
:100650001FC3F83FC3F03FC3F03F83E03E07E03CD9
:1006600007C01C0F800E1F0007FC000816160E03A3
:10067000017EFFFFFFFF7E00000000000000000081
:10068000007EFFFFFFFF7E00101000FE0A06A70895
:100690009500FFFE0EFE0BFE1010201000FEAAAA11
:1006A00000018000000180004A51EA505A51C99E61
:1006B00000018000000180000001800055551010ED
:1006C000201000FEAAAA00018000000180003993DA
:1006D000C252325F8A527193800000018000000193
:1006E000800055551010201000FEAAAA00018000BD
:1006F000000180003BA5C1243119892471258000A7
:10070000000180000001800055551010201000FEEF
:10071000AAAA00018000000180007BA5C1247919EC
:10072000C12479258000000180000001800055551A
:100730001010201000FEAAAA000180000001800015
:1007400079BFC2487A49C248798980000001800097
:100750000001800055551010201000FEAAAA0001CB
:100760008000000180007A4DC2527B53C2D67A4F7E
:1007700080000001800000018000555510102010FD
:1007800000FEAAAA000180000001800031A5CA284D
:100790007A31CA2849A5800000018000000180004C
:1007A00055551010201000FEAAAA0001800000017B
:1007B000800073D1CA1073D1CA1073DF80000001AA
:1007C00080000001800055551010201000FEAAAADC
:1007D00000018000000180001E3991401E31910807
:1007E0001E7180000001800000018000555510102E
:1007F000201000FEAAAA000180000001800022F95A
:10080000A2203E21A22022218000000180000001C0
:10081000800055551010201000FEAAAA000180008B
:100820000001800020F9A08020F9A0803E81800096
:10083000000180000001800055551010201000FEBE
:10084000AAAA000180000001800022F9A220222132
:10085000942008218000000180000001800055558F
:100860001010201000FEAAAA0001800000018000E4
:100870003EF9A0803EF9A080208180000001800028
:100880000001800055551010201000FEAAAA00019A
:100890008000000180001EF1A08820F1A0901E8938
:1008A00080000001800000018000555510102010CC
:1008B00000FEAAAA00018000000180001E71A0882D
:1008C0001C8982883C71800000018000000180004A
:1008D00055551010201000FEAAAA0001800000014A
:1008E00080001EF9A0201C2182203CF9800000011C
:1008F00080000001800055551010201000FEAAAAAB
:100900000001800000018000391DA510251DA510E3
:1009100039DD800000018000000180005555101075
:10092000201000FEAAAA0001800000018000718949
:10093000CA184A09CA08719D8000000180000001A0
:10094000800055551010201000FEAAAA000180005A
:10095000000180007199CA044A09CA10719D800083
:10096000000180000001800055551010201000FE8D
:10097000AAAA00018000000180007199CA044A19E6
:10098000CA04719980000001800000018000555563
:100990001010201000FEAAAA0001800000018000B3
:1009A0007185CA0C4A15CA1C71858000000180003F
:1009B0000001800055551010201000FEAAAA000169
:1009C0008000000180004993EA546A59DBD44A53FD
:1009D000800000018000000180005555101020109B
:1009E00000FEAAAA00018000000180003453C29AD0
:1009F000311789127113800000018000000180000E
:100A000055551010201000FEAAAA00018000000118
:100A100080007BB9C1247939C12479398000000173
:100A200080000001800055551010201000FEAAAA79
:100A300000018000000180003325C4B447ADC4A488
:100A400034A5800000018000000180005555101081
:100A5000201000FEAAAA00018000000180003E894B
:100A6000A0D83EA9A0883E89800000018000000136
:100A7000800055551010201000FEAAAA0001800029
:100A8000000180003A5DC252325D8A52719D800041
:100A9000000180000001800055551010201000FE5C
:100AA000AAAA000180000001800079CFC2107991CC
:100AB000C0507B8F800000018000000180005555F0
:100AC0001010201000FEAAAA000180000001800082
:100AD0001E7190801E61901010E180000001800066
:100AE0000001800055551010201000FEAAAA000138
:100AF0008000000180000E719080166192100EE15E
:100B00008000000180000001800055551010201069
:100B100000FEAAAA00018000000180001C719280E2
:100B20001C61941012E1800000018000000180002F
:100B300055551010201000FEAAAA000180000001E7
:100B4000800012719280126192100CE1800000010D
:100B5000800000018000555500000008000E010AC9
:100B60000A080400808080808080800080800504E6
:100B70000408020888888888060A0A0801002424D4
:100B800024FC4848FC909090070A0A080100107C59
:100B90009290701C12927C10070A0A08010062945D
:100BA000946810102C52528C070A0A08010038442D
:100BB000442830528A848C7201040408040880801E
:100BC0008080030C0C0803FF2040408080808080E0
:100BD00080404020030C0C0802FF80404020202071
:100BE0002020204040800707070801011092543858
:100BF000549210070707080101101010FE10101082
:100C00000204040803FEC0404080040101080204FD
:100C1000F0020202080300C0C0060A0A080100042C
:100C2000040810102020408080060A0A08010030C5
:100C3000488484848484844830050A0A0802002099
:100C400060A0202020202020F8060A0A0801007851
:100C50008484041820408080FC060A0A0801007879
:100C6000848404380404848478060A0A080100088D
:100C70001828488888FC080808060A0A080100FCA9
:100C8000808080F80404048478060A0A0801003889
:100C9000408080F88484848478060A0A080100FC75
:100CA000040408080810101010060A0A0801007849
:100CB000848484788484848478060A0A080100780D
:100CC0008484847C0404040870020707080301C0BC
:100CD000C0000000C0C00209090803FFC0C0000036
:100CE00000C040408005090908020008102040802B
:100CF00040201008060505080102FC000000FC0564
:100D00000909080100804020100810204080060AD0
:100D10000A08010078848404081010001010060AE4
:100D20000A080100384494ACA4A4A49C403C060AE0
:100D30000A0801003048488484FC84848484060ABC
:100D40000A080100F8848484F884848484F8060AFC
:100D50000A08010078848480808080848478060A70
:100D60000A080100F08884848484848488F0060A58
:100D70000A080100FC808080F880808080FC060AE0
:100D80000A080100FC808080F88080808080060A4C
:100D90000A08010078848480809C84848C74060A0C
:100DA0000A08010084848484FC8484848484050A81
:100DB0000A080200F82020202020202020F8070A1E
:100DC0000A0801003E080808080808888870060A12
:100DD0000A080100848890A0C0C0A0908884060AF8
:100DE0000A080100808080808080808080FC060A64
:100DF0000A0801008484CCCCB4B484848484060AB8
:100E00000A08010084C4C4A4A494948C8C84060AA7
:100E10000A08010078848484848484848478060A9F
:100E20000A080100F8848484F88080808080070BA1
:100E30000B0801FF78848484848484B4CC7806060B
:100E40000A0A080100F8848484F89088888484065B
:100E50000A0A080100788484806018048484780772
:100E60000A0A080100FE10101010101010101006D1
:100E70000A0A080100848484848484848484780732
:100E80000A0A08010082828244444428281010067D
:100E90000A0A08010084848484B4B4CCCC84840617
:100EA0000A0A08010084844848303048488484078E
:100EB0000A0A08010082824444281010101010060B
:100EC0000A0A080100FC0404081020408080FC038A
:100ED0000C0C0804FFE0808080808080808080800F
:100EE000E0060A0A08010080804020201010080453
:100EF00004030C0C0801FFE02020202020202020EB
:100F00002020E00603030801093048840701010896
:100F100001FFFE03030308020A80402006080808B8
:100F200001007884047C84848C74060B0B08010017
:100F3000808080B8C484848484C4B806080808010A
:100F4000007884808080808478060B0B0801000480
:100F50000404748C848484848C740608080801005A
:100F6000788484FC80808478050B0B0801001820AD
:100F70002020F8202020202020060B0B0801FE0452
:100F800074888888704078848478060B0B08010088
:100F9000808080B8C4848484848484050B0B080218
:100FA0000020200060202020202020F8050D0D08C2
:100FB00001FE0808001808080808080808906006DC
:100FC0000B0B0801008080808890A0C0A0908884CE
:100FD000050B0B080200602020202020202020206C
:100FE000F8070808080100EC9292929292929206F9
:100FF0000808080100B8C48484848484840608082E
:101000000801007884848484848478060A0A0801AC
:10101000FEB8C484848484C4B88080060A0A0801A7
:10102000FE748C848484848C74040406080808018B
:1010300000B8C48480808080800608080801007899
:1010400084806018048478050A0A080100202020A2
:10105000F820202020201806080808010084848435
:101060008484848C740608080801008484844848B9
:1010700048303007080808010082929292929292BA
:101080006C060808080100848448303048848406CF
:101090000A0A0801FE84848484844C34040478069B
:1010A0000808080100FC040810204080FC030C0C18
:1010B0000803FF6080804040808040408080600165
:1010C0000E0E0804FE80808080808080808080807A
:1010D000808080030C0C0802FFC0202040402020AC
:1010E00040402020C007030308010862928C1010C2
:1010F000201000FEAAAA000180000001800073D128
:10110000CA104BD1CA1073DF8000000180000001BB
:10111000800055551010201000FEAAAA0001800082
:1011200000018000719DCA5273D3C252425D80009B
:10113000000180000001800055551010201000FEB5
:10114000AAAA0001800000018000499DCA527A5D70
:10115000CA5049918000000180000001800055556F
:101160001010201000FEAAAA0001800000018000DB
:101170007393CA52739FCA127213800000018000D9
:101180000001800055551010201000FEAAAA000191
:101190008000000180004B93EA525B9FCA524B9340
:1011A00080000001800000018000555510102010C3
:1011B00000FEAAAA000180000001800074B9A6A464
:1011C00025A5A4A474B9800000018000000180005E
:1011D00055551010201000FEAAAA00018000000141
:1011E00080004BD1EA105BD1CA104BDF80000001B8
:1011F00080000001800055551010201000FEAAAAA2
:10120000000180000001800039CDC212319F885258
:10121000739380000001800000018000555510107C
:10122000201000FEAAAA000180000001800079CDF4
:10123000C212799FC0527B938000000180000001A0
:10124000800055551010201000FEAAAA0001800051
:10125000000180004B9DC9207919C90449398000DB
:10126000000180000001800055551010201000FE84
:10127000AAAA000180000001800025DDA4843C852D
:10128000A48424998000000180000001800055554D
:101290001010201000FEAAAA0001800000018000AA
:1012A00045CDC4904489A884109980000001800035
:1012B0000001800055551010201000FEAAAA000160
:1012C000800000018000721DCA127213C21243DD39
:1012D0008000000180000001800055551010201092
:1012E00000FEAAAA00018000000180007213CA1249
:1012F0007213C21243CD8000000180000001800003
:1013000055551010201000FEAAAA0001800000010F
:1013100080000E2189200E218A20092180000001F1
:1013200080000001800055551010201000FEAAAA70
:10133000000180000001800039DDC202318D88503B
:10134000739F80000001800000018000555510103F
:10135000201000FEAAAA000180000001800039DDF3
:10136000C202318D8842739D80000001800000011F
:10137000800055551010201000FEAAAA0001800020
:101380000001800071CFCA104A0DCA0271DD8000D1
:10139000000180000001800055551010201000FE53
:1013A000AAAA00018000000180007245CA4C724563
:1013B000C244418F8000000180000001800055552B
:1013C0001010201000FEAAAA000180000001800079
:1013D000725DCA42724DC250419F80000001800080
:1013E0000001800055551010201000FEAAAA00012F
:1013F0008000000180003B9DC120311989047139B2
:101400008000000180000001800055551010201060
:1014100000FEAAAA000180000001800039D3C21298
:10142000421FC21239D380000001800000018000F9
:1014300055551010201000FEAAAA000180000001DE
:1014400080002289B6882AA9A2D8228980000001BA
:1014500080000001800055551010201000FEAAAA3F
:1014600000018000000180003B8DC252339F8A1230
:10147000721380000001800000018000555510109B
:10148000201000FEAAAA00018000000180007B8DD0
:10149000C2527B9FC2127A138000000180000001BB
:1014A000800055551010201000FEAAAA00018000EF
:1014B00000018000398FC250324D8A42719D8000F8
:1014C000000180000001800055551010201000FE22
:1014D000AAAA0001800000018000339BC42225A33A
:1014E00094A2639B8000000180000001800055559C
:1014F0001010201000FEAAAA000180000001800048
:1015000039DDC20832098A0871DD800000018000DF
:101510000001800055551010201000FEAAAA0001FD
:1015200080000001800039DDC2084189C0483B9D30
:10153000800000018000000180005555101020102F
:1015400000FEAAAA00018000000180000EF9902090
:101550000C2182201C2180000001800000018000FD
:1015600055551010201000FEAAAA000180000001AD
:10157000800031CFCA104991C850338F80000001DC
:1015800080000001800055551010201000FEAAAA0E
:1015900000018000000180001C8992D81CA990885D
:1015A0001089800000018000000180005555101056
:1015B000201000FEAAAA0001800000018000338FE5
:1015C000CA507B91CA104A0F8000000180000001C0
:1015D0008000555500000008000E010A0A080400AA
:1015E00080800080808080808080070A0A08010057
:1015F00010107C929090927C1010070A0A0801004B
:101600001C202020F82020207CC2060808080101A8
:101610008448784848784884070A0A0801008244C8
:101620002810FE10FE101010010A0A080400808025
:101630008080000080808080060A0A08010078848B
:10164000807884847804847804020208020C9090E4
:10165000080A0A0800003C4299A5A1A1A599423CAC
:10166000050707080205700878887800F806090958
:10167000080100242448489048482424060404080B
:101680000100FC0404041010201000FEAAAA0001AE
:1016900080003A63C25433C98A487249800000010D
:1016A000800003C18000000180005555080A0A0827
:1016B00000003C42B9A5A5B9A9A5423C0601010814
:1016C000010BFC03040408020A40A0A0400709091A
:1016D000080101101010FE10101000FE0507070889
:1016E0000205708808708080F805070708020570F9
:1016F00088087008887003030308030A20408008E4
:101700000A0A0800FE4242424242426659408006AE
:101710000C0C0801FF7CF4F4F4F474141414141485
:101720001C020202080304C0C00302020802FE20D9
:10173000C00307070802052060A02020202005071D
:1017400007080205708888887000F80609090801F2
:1017500000909048482448489090060A0A080100E2
:1017600044C4485050242C549C84060A0A080100A2
:1017700044C4485050283444889C060A0A08010092
:10178000C4244830D0242C549C84060A0A08010042
:1017900010100010106084848478060E0E0801007A
:1017A000601800003048488484FC84848484060ED9
:1017B0000E080100186000003048488484FC8484CE
:1017C0008484060E0E08010030480000304848842A
:1017D00084FC84848484060E0E0801006498000052
:1017E0003048488484FC84848484060E0E080100FA
:1017F000484800003048488484FC84848484060E71
:101800000E080100304830003048488484FC84844D
:101810008484070A0A0801003E509090FE90909040
:10182000909E060C0C0801FE788484808080808461
:1018300084781060060E0E08010060180000FC801D
:101840008080F880808080FC060E0E080100186001
:101850000000FC808080F880808080FC060E0E08EE
:10186000010030480000FC808080F880808080FC8F
:10187000060E0E08010048480000FC808080F880B9
:10188000808080FC050E0E08020060180000F82021
:1018900020202020202020F8050E0E08020030C055
:1018A0000000F82020202020202020F8050E0E081F
:1018B000020060900000F82020202020202020F846
:1018C000050E0E08020090900000F8202020202035
:1018D000202020F8070A0A08000078444242F24219
:1018E00042424478060E0E0801006498000084C449
:1018F000C4A4A494948C8C84060E0E080100601875
:10190000000078848484848484848478060E0E089D
:10191000010018600000788484848484848484783E
:10192000060E0E0801003048000078848484848408
:1019300084848478060E0E08010064980000788480
:101940008484848484848478060E0E0801004848C8
:10195000000078848484848484848478060505085F
:1019600001028448304884060C0C0801FF04748886
:101970008C9494A4A4C444B880060E0E08010060A0
:1019800018000084848484848484848478060E0E01
:101990000801001860000084848484848484848422
:1019A00078060E0E08010030480000848484848488
:1019B0008484848478060E0E080100484800008460
:1019C000848484848484848478070E0E080100183B
:1019D00060000082824444281010101010060B0B87
:1019E0000801008080F088848488F0808080060A66
:1019F0000A08010070888890B0888484A498060C36
:101A00000C080100601800007884047C84848C74C5
:101A1000060C0C080100186000007884047C8484A3
:101A20008C74060C0C080100304800007884047C9B
:101A300084848C74060C0C0801006498000078847F
:101A4000047C84848C74060C0C0801004848000057
:101A50007884047C84848C74060D0D080100304861
:101A60003000007884047C84848C740708080801A2
:101A7000007C92127E9090927C060A0A0801FE7801
:101A8000848080808084781060060C0C08010060DF
:101A9000180000788484FC80808478060C0C08018F
:101AA0000018600000788484FC80808478060C0C28
:101AB00008010030480000788484FC808084780627
:101AC0000C0C08010048480000788484FC80808465
:101AD00078050C0C080200C0300000602020202097
:101AE0002020F8050C0C08020030C0000060202007
:101AF00020202020F8050C0C0802006090000060F7
:101B0000202020202020F8050C0C080200909000D6
:101B10000060202020202020F8060C0C0801006422
:101B2000182844047C848484848478060C0C08017E
:101B30000064980000B8C4848484848484060C0CF7
:101B40000801006018000078848484848484780606
:101B50000C0C08010018600000788484848484845C
:101B600078060C0C080100304800007884848484D6
:101B7000848478060C0C0801006498000078848442
:101B80008484848478060C0C08010048480000789E
:101B90008484848484847806070708010130000067
:101BA000FC000030060A0A0801FF04788C9494A413
:101BB000A4C47880060C0C0801006018000084841E
:101BC000848484848C74060C0C0801001860000066
:101BD0008484848484848C74060C0C08010030484E
:101BE00000008484848484848C74060C0C080100B6
:101BF000484800008484848484848C74060E0E0813
:101C000001FE1860000084848484844C34040478C9
:101C1000050C0C0802FE8080F088888890A0C080A7
:101C20008080060E0E0801FE4848000084848484EB
:101C3000844C34040478004421EBF81204C50A7D76
:101C400020FFFA19F913FA0000000700000312122E
:101C5000070200E0E0E0E0E0E0404040404040407B
:101C60004000E0E0E00605050A020DCCCCCCCC48F3
:101C70000E12241202000420042004200420042058
:101C8000FFFC084008400840084008401840FFFC9E
:101C9000108010801080108010800B162C0F02FE18
:101CA000090009001F8029404920492049604960F6
:101CB00069003D001F800FC009C00960E920E920CC
:101CC000C920C94069401F80090009001212361658
:101CD0000200380200440400C60800C60800C6100E
:101CE00000C62000C62000444000384000008600A6
:101CF0000119800130800230C00430C00430C008B7
:101D000030C0081880100F0012123614010007802E
:101D10000008400018400018400018C0001C800057
:101D20000F0000061FC00F06001706002384006185
:101D3000C400C0E800C0F000C07000E0788060DC43
:101D4000803F0F0002050507020DC0C0C0C040065D
:101D500017170A03FC081030204040C080808080A4
:101D600080808080C04040602010180C0617170942
:101D700001FC402030101808080C0404040404047A
:101D80000C08080810102040C00A0A140E02080CA3
:101D9000000C00CCC0C9C02B001C007B80C9C00C4B
:101DA000000C001616421801FC0010000010000084
:101DB00010000010000010000010000010000010C3
:101DC00000001000001000FFFFFC001000001000D9
:101DD00000100000100000100000100000100000B3
:101DE0001000001000001000001000030808070297
:101DF000FCC0E0E020204040800701010B0206FE0D
:101E0000030303070200E0E0E00818180C02FA01DF
:101E1000010202020404040C08081810101020200B
:101E2000204040408080800C12240F01000F0010E1
:101E3000C0204060606020C030C030C030C030C0C2
:101E400030C030C030C03060206060204010C00F13
:101E5000000912240F0300080008001800F80018F9
:101E600000180018001800180018001800180018B2
:101E7000001800180018001800FF800A12240F0232
:101E8000001E00638081C080C080C0E0C0F0C02020
:101E9000C00180030006000800100020004040C080
:101EA00040FFC0FFC00B12240F02003F006180C042
:101EB000C0E0C0F0C000C000C001803E0001800052
:101EC000C000606060F060F060C0C041803F000C06
:101ED00012240F020001000300030007000F000B93
:101EE000001300330023004300C3008300FFE0031E
:101EF000000300030003001FF00B12240F02006018
:101F0000C07F807E004000400040005F0061804054
:101F1000C040E0006000606060F060E0C0C0C041B0
:101F2000803E000B12240F02000F0018803040602A
:101F3000C060C04000C000CF00D1C0E0C0E0E0E021
:101F400060E060E06060E060C031800F000A122451
:101F50000F0300FFC0FFC0804080408080008001F0
:101F60000001000200060006000C000C001E001E0E
:101F7000001E001E000E000C12240F02001F8030F5
:101F8000E06060C030C030E030F0207C403F8037FF
:101F9000E060F0C070C030C030C030606070C01F02
:101FA000800B12240F02001E00318060C0E0C0C010
:101FB00040C060C060C0E060E071601E6000600012
:101FC0004060C060C0408041003E00030C0C07022E
:101FD00000E0E0E0000000000000E0E0E00410109D
:101FE0000802FCF0F0F0000000000060F0F01010BB
:101FF00020204014153F1802FD0000300000C000F2
:102000000300000C0000300000E0000380000E0020
:1020100000180000600000C000003000000C00004C
:1020200007000001C000007000001800000600005A
:102030000180000060000010160612180104FFFF66
:10204000FC000000000000000000000000FFFFFC9A
:1020500014153F1802FDC000003000000C00000302
:10206000000000C000007000001C0000070000011C
:10207000800000600000300000C0000300000E007F
:1020800000380000E0000180000600001800006039
:1020900000008000000912240C02003E0043008171
:1020A000808180E1806180030006000C0010003018
:1020B00000220022001C0000001C001C001C00125A
:1020C000123614010003F8000C0600106D00219C6C
:1020D00080430C804608408E08408E18408C184083
:1020E0008C10408C30808C30808CF100471E00605A
:1020F0000000200000180C0007F000121236140235
:102100000000800000C00001C00001C00001E0002C
:1021100003E000026000027000067000043000045A
:1021200038000C38000FF800181C00100C00100CC0
:1021300000300E00FE3FC00F1224110100FFF01806
:102140001C180C180618061806180C18181FE0188A
:1021500018180C1806180618061806180C181CFF74
:10216000F00E12241202000784186C203C601C60E0
:102170000CC00CC004C000C000C000C000C004609F
:1021800004600420083018183007C01112361401FA
:1021900000FFF000180C00180600180300180300D8
:1021A000180180180180180180180180180180181A
:1021B0000180180180180180180300180300180618
:1021C00000180C00FFF0000F1224120100FFFE188F
:1021D000061802180218021822182018601FE018AA
:1021E00060182018201822180218021806180EFF6E
:1021F000FE0F1224110100FFFE1806180218021823
:10220000021822182018601FE018601820182018E3
:102210002018001800180018007F00111236130251
:102220000007C400186400301C00601C00600C0033
:10223000600400C00400C00000C07F80C01C00C05B
:102240001C00C01C00C01C00601C00601C0030345E
:1022500000186400078400121236140100FF3FC00A
:1022600018060018060018060018060018060018C0
:1022700006001806001FFE001806001806001806C3
:1022800000180600180600180600180600180600B8
:10229000FF3FC00812120A0100FF1818181818187A
:1022A00018181818181818181818FF0C12240E01EE
:1022B0000007F00180018001800180018001800120
:1022C0008001800180018001806180F180E180C116
:1022D0008043003E00111236130100FF3F80180EAC
:1022E000001808001810001820001840001880007E
:1022F00019C0001AC0001CE0001860001870001817
:102300003800183800181C00181C00180E00FF7F39
:10231000800F1224110100FF001800180018001887
:1023200000180018001800180018001800180218EB
:1023300002180218061806180EFFFE1412361601AF
:1023400000FC03F01C03801E058016058016058026
:102350001705801309801309801389801391801158
:10236000918011D18011D18010E18010E18010E1C5
:1023700080104180FE4FF0121236130100FC0FC096
:102380001C02001E02001602001702001382001138
:10239000820011C20010E20010E200107200103240
:1023A00000103A00101E00100E00100E0010060063
:1023B000FE02000F122412020007C018303018204D
:1023C00008600C600CC006C006C006C006C006C08F
:1023D00006600C600C20083018183007C00F12245B
:1023E000110100FFF0181C180C1806180618061822
:1023F0000C18181FF0180018001800180018001802
:102400000018001800FF000F162C1202FC07C0185D
:102410003030182008600C600CC006C006C006C032
:1024200006C006C006600C638C244C34781C72070E
:10243000E200620076003C0018111236130100FF22
:10244000F000181800180C00180C00180C00180CDC
:10245000001818001FE00018300018380018180085
:10246000181800181800181C80181C80181C8018D8
:102470001F00FF0F000D12241002001E2061A0C0DB
:1024800060C060C020C020E0007C003F800FE08181
:10249000F080708018C018C018E010982087C00F16
:1024A0001224120200FFFEC30E83068302030203FE
:1024B0000203020300030003000300030003000300
:1024C000000300030003001FF0131236150100FF84
:1024D0000FE0180100180100180100180100180190
:1024E000001801001801001801001801001801006F
:1024F0001801001801001801000C01000C02000670
:10250000040001F800121236140100FF1FC01C0362
:10251000001C02000C02000E060006040007040066
:1025200007080003080003880003900001900001E1
:10253000D00000E00000E00000E0000040000040AB
:10254000001A12481C0100FF3F9FC01C0E03000C24
:102550000602000C0E02000E0F06000E0F0400060D
:1025600013040007138C000713880003318800034D
:10257000A1D80003A1D00001A0D00001C0F000014B
:10258000C0E00000C06000008060000080400012D9
:1025900012361401007FBF800E0C000E0C000708DD
:1025A0000007100003B00001A00001C00000C0003F
:1025B00000E0000160000370000238000438000CE5
:1025C0001C00080C00180E00FE3FC011123613014B
:1025D00000FF1F801C06001C04000E0400060800FB
:1025E00007080003900003A00001E00000C0000005
:1025F000C00000C00000C00000C00000C00000C05B
:102600000000C00007FC000E12241102007FFC70C5
:10261000386030407040E080C001C0038003000794
:10262000000E000C041C043804300C701CE038FF51
:10263000F80517170A03FBF8C0C0C0C0C0C0C0C06F
:10264000C0C0C0C0C0C0C0C0C0C0C0C0C0F80818B2
:10265000180C02FA8080804040402020201010108A
:102660001008080804040402020201010517170AF1
:1026700002FBF8181818181818181818181818182D
:102680001818181818181818F80B09120F0209044E
:10269000000E000A00110031802080404040608020
:1026A000200E01020E00FCFFFC0404040B020DC00E
:1026B000E060100B0C180D01001E006300418061EA
:1026C0008021800F807180C180C3A0C3A0C5A07984
:1026D000C00B12240D0000F000300030003000303C
:1026E000003000338034C038603860306030603093
:1026F0006030603060386028C02780090C180B01FA
:10270000001E0021006080C180C180C000C000C0E8
:1027100000C080608021001E000C12240E01000702
:10272000C000C000C000C000C000C01CC062C061CA
:10273000C0C1C0C0C0C0C0C0C0C0C0C0C061C06156
:10274000C01EF0090C180C01001E0023006180C19E
:1027500080C180FF80C000C000C080608021001E5A
:10276000000912240901000F001880318031003067
:10277000003000FE0030003000300030003000300B
:10278000003000300030003000FE000C12240F0238
:10279000FA1E7061B0E1F0C0C0C0C0C0C0E180618D
:1027A000801E00E000FF007FC0406080208020800D
:1027B00020C0403F800D12240F0100F00030003097
:1027C0000030003000300033C034C0386038603032
:1027D00060306030603060306030603060FDF8063E
:1027E0001212080100707020000000F0303030300C
:1027F000303030303030FC07181808FFFA06060079
:102800000000003E06060606060606060606060642
:1028100006C6C68C780C12240E0100F00030003081
:102820000030003000300031F030803100320032B2
:102830000036003B003300318031C030E0FDF0064F
:102840001212080100F0303030303030303030308B
:10285000303030303030FC130C24150100F3C70049
:1028600034F9803871C03861C03061C03061C03027
:1028700061C03061C03061C03061C03061C0FDFBFB
:10288000E00D0C180F0100F3C034C0386038603020
:1028900060306030603060306030603060FDF80A79
:1028A0000C180D01001E0021806180C0C0C0C0C096
:1028B000C0C0C0C0C0C0C0618021801E000B1224F7
:1028C0000E01FAF38034C038603860306030603018
:1028D0006030603060386038C037803000300030A1
:1028E0000030003000FC000C12240D01FA1C406284
:1028F0004061C0C0C0C0C0C0C0C0C0C0C0C0C06116
:10290000C061C01EC000C000C000C000C000C00345
:10291000F0090C180B0100F38034803980388038BE
:1029200000300030003000300030003000FC000982
:102930000C180B01007D0083008100C100F0007CB9
:10294000001F0083808080C080E0809F00081111FC
:102950000A01001010103030FE303030303030308E
:102960003131331E0D0C180E0000F1E03060306084
:102970003060306030603060306030E030E03960CE
:102980001E780D0C180E0100FCF830603040184025
:1029900018800C800C800D00070007000200020068
:1029A000130C24150100FDFBE030608030608018BE
:1029B000710018B1000CB1000C9A000D1A00071C30
:1029C00000070C00020C000208000C0C180E01009D
:1029D000F9E03080390019000E000E0006000B00EF
:1029E0001300118021C0F3F00D12240E00FAFCF840
:1029F0003820182018400C400C400C8006800680BF
:102A000007000300030002000200220062006400CD
:102A10003800090C180C0100FF80C3808300860079
:102A20008E000C0018003800308060806080FF80CD
:102A30000617170C03FB0C103030303038181818FC
:102A400010E0301018183830303030100C011818E1
:102A50000703FA80808080808080808080808080F2
:102A600080808080808080808080800617170B03A4
:102A7000FBC0203030307060606060201C306060CF
:102A800060607030303020C00F050A11010420044E
:102A9000FE028FC281FE407CFFFFFFFFFFFFFFFFB2
:102AA000FFFFFFFFFFFFFFFFFFFFFFFFFFFFFFFF36
:102AB000FFFFFFFFFFFFFFFFFF0000000700000315
:102AC00012120702FAE0E0E000404040404040407F
:102AD00040E0E0E0E0E0E00912240F03FD04000420
:102AE0000004001F0035006480E580C580C400C478
:102AF00000C400E480648035001F0004000400046A
:102B0000000E122413020000F801840304020C06D4
:102B100000060006003E0007E0060006000600066C
:102B200000060074048C048BF870F00B0B160F0277
:102B3000029F2071C04040806080208020802080E3
:102B400020404060C09F200F12240F0000FC7E3800
:102B50001818101C100C200E400640078003803F00
:102B6000F0030003003FF003000300030003001F15
:102B7000E00117170703FB808080808080808080C1
:102B800000000000008080808080808080800A17A4
:102B90002E1103FB1E002100230023002000300023
:102BA0001C002E004700838081C0C0C0E040704000
:102BB00038801D00060003000300310031002200B0
:102BC0001C000702020B020FC6C6131236150100C5
:102BD00003F8000C060010E100211C80430C404665
:102BE000044086042086002086002086002086007F
:102BF0002086082043084043084020F08010010050
:102C00000C060003F8000708080B020AF0C8186851
:102C1000889A64FC060A0A0C030120448888888884
:102C2000888844200D060C0F0103FFF800080008F7
:102C30000008000800080701010B0206FE13123607
:102C400015010003F8000C06001FE1002318804363
:102C5000184043184083182083182083E0208310F5
:102C600020831820831820431A40431A402F8E8057
:102C70001001000C060003F8000701010B020FFE13
:102C80000707070F040B3844828282443816123635
:102C90001801FF00100000100000100000100000DC
:102CA0001000001000001000FFFFFC0010000010DA
:102CB00000001000001000001000001000001000C4
:102CC000000000000000FFFFFC070A0A0B02087C5E
:102CD0008686E60608106042FE070B0B0C03077899
:102CE00084C6C604780E46C686780404040B050D17
:102CF000303060800E13261102F9C0C0C0C0C0C0C1
:102D0000C0C0C0C0C0C0C0C040C040804084A3FCA0
:102D10009E3880008000C000C000C000E00040007D
:102D20000B162C0E02FC3FE07880F880F880F880CB
:102D3000F880F88078800880088008800880088003
:102D40000880088008800880088008800880088043
:102D50000880030303070207E0E0E00505050B0315
:102D6000FB40301818F0060B0B0C03071010F03066
:102D7000303030303030FC0609090A02097088848E
:102D80008484844830FC070A0A0D03010844442265
:102D9000222222444488121236170300100400F045
:102DA0000C0030080030100030100030200030607F
:102DB00000304300308700308B00FD0B0003130010
:102DC000021300062300043FC0080300180300108C
:102DD0000FC0111236160300100400F0080030086E
:102DE00000301000301000302000304000304E0025
:102DF00030B38030A180FD318003118002030004D4
:102E00000600040800081080183180103F8012125C
:102E100036170300780400860C00C6080004100072
:102E20007810000C2000066000C64300C687008EA4
:102E30008B00790B000213000213000423000C3FE7
:102E4000C0080300100300100FC00912240C01FA7F
:102E50001C001C001C0000001C00220022000600B8
:102E60000400180030006000E300C380C080E080F0
:102E700061003E001218481402000600000600001F
:102E8000030000008000000000000000008000003F
:102E9000C00001C00001C00001E00003E0000260CA
:102EA000000270000670000430000438000C1800A6
:102EB0000FF800181C00100C00100E00300E00FE61
:102EC0003FC01218481402000010000030000060DB
:102ED0000000400000800000000000800000C000F2
:102EE00001C00001C00001E00003E0000260000238
:102EF00070000670000430000438000C38000FF831
:102F000000181C00100C00100E00300E00FE3FC018
:102F100012184814020000800000C0000160000286
:102F2000300004080000000000800000C00001C064
:102F30000001C00001E00003E00002600002700038
:102F40000670000430000438000C38000FF8001838
:102F50001C00100C00100C00300E00FE3FC01217B9
:102F60004514020003900005F0000000000000007E
:102F700000000000800000800001C00001C00001CE
:102F8000E00003E000026000027000067000043000
:102F9000000C38000C38000FF800181C00101C0042
:102FA000100C00300E00FE3FC01217451401000641
:102FB000180006180002100000000000000000C009
:102FC0000000C00000C00001E00001E0000160005E
:102FD0000270000270000230000438000418000C77
:102FE00018000FFC00080C00180C00180E00380622
:102FF00000FE3FC011184814020001C0000220006A
:1030000002200002200001C000000000008000003B
:10301000800001C00001C00001C00002E0000260A9
:10302000000260000470000470000C3000083800DA
:103030000FF800181C00101C00100C00300E00FED1
:103040007F801812361A0000007FFF001C07001C4A
:1030500003002C01002C01004C11004C10008C309E
:10306000008FF0010C30030C10020C1107FC11044E
:103070000C01080C01080C03180C07FE3FFF0E188A
:10308000301202FA0784186C203C601C600CC00CE3
:10309000C004C000C000C000C000C00460046004E0
:1030A00060083018183007C00200038000C000C05C
:1030B00008C007800F18301201000400060003004A
:1030C000018000000000FFFE180618021802180216
:1030D0001822182018601FE01860182018201822E5
:1030E000180218021806180EFFFE0F183012010001
:1030F00000300030006000C000000000FFFE180E2D
:103100001806180218021822182018601FE018600C
:10311000182018201822180218021806180EFFFE90
:103120000F1830120100008001C00340063008086B
:103130000000FFFE180618021802180218221820B4
:1031400018601FE0186018201820182218021802B2
:103150001806180EFFFE0F172E120100063006305B
:10316000041000000000FFFE180E180618021802D6
:103170001822182018601FE0186018201820182244
:10318000180218021806180EFFFE0818180A010087
:10319000406030100800FF18181818181818181870
:1031A00018181818181818FF0818180A010003032F
:1031B00006080000FF1818181818181818181818FA
:1031C0001818181818FF0818180A010008183442AF
:1031D0008100FF1818181818181818181818181837
:1031E000181818FF0817170A0100C3C3420000FF90
:1031F000181818181818181818181818181818184F
:10320000FF111236130100FFF000180C0018060021
:103210001803001803001801801801801801807F2E
:10322000018018018018018018018018018018039E
:1032300000180300180600180C00FFF000121848D0
:1032400013010003C80002F80000000000000000A5
:103250000000000000FC0FC01C02001E020016024D
:103260000017020013820011820011C20010E20058
:1032700010E200107200103200103A00101E001010
:103280000E00100E00100600FC02000F1830120293
:10329000011C000C00060002000100000007C0181D
:1032A0003030182008600C600CC006C006C006C094
:1032B00006C006C006600C600C20083018183007E5
:1032C000C00F18301202010070006000C0008001C1
:1032D00000000007C0183030182008600C600CC0D7
:1032E00006C006C006C006C006C006600C600C2002
:1032F000083018183007C00F183012020001000300
:103300008006C00C601010000007C0183030182074
:1033100008600C600CC006C006C006C006C006C02F
:1033200006600C600C20083018183007C00F1830E9
:103330001202000F1013E000000000000000000760
:10334000C0183030182008600C600CC006C006C0E1
:1033500006C006C006C006600C600C2008301818B5
:103360003007C00F183012020008000C600C60001B
:10337000000000000007C0183030182008600C6002
:103380000CC006C006C006C006C006C006600C60C1
:103390000C20083018183007C01010201804FF0047
:1033A0000140032006100C08180430026001C0011F
:1033B00080034006200C10180830046002C0010F82
:1033C000122412020007C21834301C200C601C604A
:1033D0002CC046C0C6C186C306C606C406E80C702B
:1033E0000C60087018583087C01318481501010385
:1033F000000003800000800000400000000000008A
:1034000000FF0FE01801001801001801001801006A
:103410001801001801001801001801001801001817
:1034200001001801001801001801000C01000C0235
:103430000006040001F800131848150101001C00E3
:10344000001800003000002000004000000000FFD5
:103450000FE0180100180100180100180100180100
:1034600000180100180100180100180100180100DF
:103470001801001801001801000C01000C020006E0
:10348000040001F80013184815010000600000E076
:103490000001B000030800000400000000FF0FE07E
:1034A0001801001801001801001801001801001887
:1034B000010018010018010018010018010018018E
:1034C000001801001801000C01000C0200060400A5
:1034D00001F8001317451501010318000318000037
:1034E0000000000000000000FF0FE01801001801BC
:1034F000001801001801001801001801001801004F
:103500001801001801001801001801001801001826
:1035100001000C01000C020006040001F800111863
:10352000481301000018000038000030000040007F
:10353000000000000000FF1F801C06001C04000E9D
:10354000040006080007080003900003A00001E043
:103550000000C00000C00000C00000C00000C000AB
:1035600000C00000C00000C00007FC000F122411C2
:103570000100FF00180018001FE01818180C1806AA
:1035800018061806180E180C18181FF01800180046
:1035900018001800FF000C12240E0100078018E02C
:1035A0001860306030C0308037003180304030608B
:1035B0003070303030303030363036703460F3C0F8
:1035C0000B12240D0100600060003000180008009C
:1035D00000001E0063004180618021800F807180A7
:1035E000C180C3A0C3A0C5A079C00B12240D0100E7
:1035F0000180038003000400080000003E00410039
:103600004180618021800F807180C180C1A0C3A0F2
:10361000C5A078C00B12240D010008000C001C008E
:103620003200410000001E00630041806180218063
:103630000F807180C180C3A0C3A0C5A079C00B1149
:10364000220D010038804F000000000000001E0025
:1036500063004180618021800F807180C180C3A0A0
:10366000C3A0C5A079C00B11220D01006300630047
:103670000100000000003C00430043006300030021
:103680000F007300C300C320C720CB2079C00B12EA
:10369000240D01001C002200220022001C0000005A
:1036A0003C0043004300630023000F007300C3008D
:1036B000C320C720C72079C0100C181201001E7843
:1036C00063C64186618301831FFF6180C180C3811E
:1036D000C382C4C2787C0912240B01FA1E002100A7
:1036E0006080C180C180C000C000C000C000608098
:1036F00021001E0008000C000200030003001E0051
:103700000912240C01006000700030000800000065
:1037100000001E0023006180C180C180FF80C000C6
:10372000C000C080608021001E000912240C01002E
:103730000100030002000400080000001E00230036
:103740006180C180C180FF80C000C000C0806080F7
:1037500021001E000912240C010008000C001C00AE
:103760001200210000001E0023006180C180C18082
:10377000FF80C000C000C080608021001E000911D1
:10378000220C0100330033000100000000001E0085
:1037900023006180C180C180FF80C000C000C08064
:1037A000608021001E00071212080000C0E06010B7
:1037B000080078181818181818181818187E061203
:1037C00012070100040C18102000F03030303030A7
:1037D0003030303030FC081111080000183824C394
:1037E0000078181818181818181818187E071111CA
:1037F00009010004C6C6000078181818181818180F
:103800001818187C0A12240D010038801B000C00C7
:103810001600230003001F80218061C0C0C0C0C00B
:10382000C0C0C0C0C0C0C0C0618021801E000D11DA
:10383000220F01000E4013C0000000000000F3C082
:1038400034C0386038603060306030603060306084
:1038500030603060FDF80A12240D01006000300075
:1038600010000800040000001E0021806180C0C01C
:10387000C0C0C0C0C0C0C0C0C0C0618021801E0028
:103880000A12240D010001800380030004000000DF
:1038900000001E0021806180C0C0C0C0C0C0C0C088
:1038A000C0C0C0C0618021801E000A12240D01002A
:1038B00004000C000E001200210000001E002180F8
:1038C0006180C0C0C0C0C0C0C0C0C0C0C0C0618036
:1038D00021801E000A11220D01003C802F000000F3
:1038E000000000001E0021806180C0C0C0C0C0C0B8
:1038F000C0C0C0C0C0C0618021801E000A11220D5E
:103900000100318031800100000000001E00218094
:103910006180C0C0C0C0C0C0C0C0C0C0C0C06180E5
:1039200021801E001610301801FF0070000070008A
:10393000007000000000000000000000000000FF18
:10394000FFFC00000000000000000000000000007C
:10395000000070000070000070000A0C180D0100DB
:103960001E4021806080C1C0C2C0C4C0C8C0D0C0D9
:10397000D0C0618061809E000D12240E00001000F6
:1039800018000C00040002000000F1E0306030601C
:103990003060306030603060306030E030E039609E
:1039A0001E780D12240E000000C000C0018002002D
:1039B00000000000F1E03060306030603060306066
:1039C0003060306030E030E039601E780D12240E37
:1039D0000000020006000500088010000000F1E071
:1039E000306030603060306030603060306030E0D7
:1039F00030E039601E780D11220E000018C018C08A
:103A0000000000000000F0E03060306030603060A6
:103A100030603060306030E030E039601E780D1882
:103A2000300E00FA006000E000C00100000000005D
:103A3000FCF83820182018400C400C400C80068000
:103A4000068007000300030003000200220062005A
:103A5000640038000B18300E01FA3000F00030001E
:103A600030003000300031C036E0346038603860FB
:103A7000306030C030C03180310032003C00300056
:103A8000300030003000300060000D172E0E00FABC
:103A900008400C600C6000000000FC781820182022
:103AA00018400C400C400E80068006800700030082
:103AB00003000200020022007200640038000010BF
:103AC00018FDFA0A023304F6207FFD0CFD0BFD0001
:103AD00000000A0001020B0B0A0300C0C0C0C0C0F6
:103AE000C0C0C000C0C00605050A0206CCCCCCCCC4
:103AF000CC090C180A00FF3600360036003600FFED
:103B00008036003600FF803600360036003600076B
:103B10000D0D0A01FF18187EC6C0E07C0E06C6FC1B
:103B20003030080B0B0A010078CCCC78073CE01E43
:103B300033331E0709090A0100386C603076DECC89
:103B4000CC7E0205050A0406C0C0C0C0C0040D0D2D
:103B50000A03FE30606060C0C0C0C0C060606030FA
:103B6000040D0D0A02FEC0606060303030303060FD
:103B70006060C00806060A01051818FF3C3C66088C
:103B800008080A0101181818FFFF1818180305057E
:103B90000A03FDE0E060C0800702020A0104FEFEA5
:103BA0000302020A0300E0E0070E0E0A01FE060609
:103BB0000C0C0C18183030306060C0C0080B0B0AB9
:103BC00001003C6666C3C3C3C3C366663C080B0BF7
:103BD0000A01001878D818181818181818FF070BB9
:103BE0000B0A010078CC8606060C183060C6FE076A
:103BF0000B0B0A010078CC860C380C060686CC78B4
:103C0000080B0B0A0100060E1E366646C6FF0606A6
:103C10001F070B0B0A0100FEC0C0C0FCC60606064B
:103C2000CCF8080B0B0A01001E7060C0DCE6C3C3B1
:103C3000C3663C070B0B0A0100FEC6060C0C1818E5
:103C400018303030070B0B0A0100386CC644386C52
:103C5000C6C6C66C38080B0B0A01003C66C3C367B6
:103C60003B0303060E780307070A0300E0E00000A9
:103C700000E0E0030A0A0A03FDE0E0000000E0E0E3
:103C800060C0800909120A0100018007801E0078C7
:103C900000E00078001E000780018009050A0A0084
:103CA00002FF80FF800000FF80FF800909120A00E8
:103CB00000C000F0003C000F0003800F003C00F04B
:103CC00000C000070A0A0A01007CC6C6061C303084
:103CD000003030090C180A00FF3E006300C180DD8F
:103CE00080B280B280B280B280DF00C00063003E4C
:103CF000000A0A140A00003C000C001E00120033E7
:103D00000033003F0061806180F3C0090A140A009B
:103D100000FE006300618063007E006300618061DB
:103D2000806300FE00090A140A00001E807380618F
:103D300080C000C000C000C000618073801E000908
:103D40000A140A0000FC0067006300618061806162
:103D500080618063006700FC00080A0A0A0100FF16
:103D60006360647C64606363FF080A0A0A0100FF01
:103D70006360647C64606060F80A0A140A00001ED4
:103D80008073806180C000C000C7C0C18061807145
:103D9000801F00090A140A0000F7806300630063B3
:103DA000007F006300630063006300F780080A0A75
:103DB0000A0100FF1818181818181818FF090A1413
:103DC0000A00003F8006000600060006000600C646
:103DD00000C600C6007C00090A140A0000F78063D0
:103DE0000066006C0078007C00660066006300FBE3
:103DF00080090A140A0000FC003000300030003056
:103E0000003000318031803180FF800A0A140A00BE
:103E100000E1C06180738073807F806D806D806100
:103E2000806180F3C00A0A140A0000F7C07180792B
:103E30008069806D806D80658067806380FB80090C
:103E40000A140A00003E0063006300C180C180C103
:103E500080C180630063003E00090A140A0000FE6E
:103E60000063006180618063007E0060006000602C
:103E700000FC00090C180A00FE3E0063006300C14C
:103E800080C180C180C180630063003E0019803F13
:103E900000090A140A0000FC006600630063006663
:103EA000007C00660063006300FB80080A0A0A01C8
:103EB000003D67C3E0781E07C3E6BC080A0A0A0192
:103EC00000FF99999918181818187E0A0A140A0000
:103ED00000F3C06180618061806180618061806188
:103EE0008033001E000A0A140A0000F3C0618061DA
:103EF000803300330033001E001E000C000C000A4B
:103F00000A140A0000F3C061806D806D806D803FEF
:103F10000033003300330033000A0A140A0000F3B0
:103F2000C0618033001E000C000C001E00330061D5
:103F300080F3C00A0A140A0000F3C0618033003322
:103F4000001E000C000C000C000C003F00070A0AC9
:103F50000A0100FEC6CC1C18307066C6FE040D0DAA
:103F60000A03FEF0C0C0C0C0C0C0C0C0C0C0C0F026
:103F7000070E0E0A01FEC0C06060603030381818AD
:103F80000C0C0606040D0D0A02FEF0303030303005
:103F9000303030303030F00804040A0107183C6635
:103FA000C30A02040A00FDFFC0FFC00403030A02A3
:103FB00008C060300807070A01003C66067EC6C6D6
:103FC0007B090B160A0000E0006000600060006ED4
:103FD0000073006180618061807300EE0008070754
:103FE0000A00003D67C3C0C0633E090B160A00000B
:103FF00007000300030003003B006700C300C30089
:10400000C30067003B800807070A01003C66C3FF46
:10401000C0633E080B0B0A01001E333030FE303007
:10402000303030FE090A140A00FD3B806700C300EF
:10403000C300C30067003B00030003003E00090B00
:10404000160A0000E0006000600060006E0073006F
:104050006300630063006300F780080A0A0A010036
:10406000181800781818181818FF060D0D0A01FD09
:10407000181800FC0C0C0C0C0C0C0C0CF8090B1692
:104080000A0000E0006000600060006F8066006C65
:104090000078006C006600EF80080B0B0A010078C6
:1040A000181818181818181818FF0A070E0A000010
:1040B000ED807F806D806D806D806D80EDC0090723
:1040C0000E0A0000EE0073006300630063006300EB
:1040D000F7800807070A01003C66C3C3C3663C09B2
:1040E0000A140A00FDEE0073006180618061807334
:1040F000006E0060006000F800090A140A00FD3B31
:10410000806700C300C300C30067003B00030003D7
:10411000000F8009070E0A0000F7003980300030D8
:104120000030003000FE000707070A01007EC6E0ED
:104130007C0EC6FC0909120A000030003000FF00A6
:10414000300030003000300031801F0009070E0AB7
:104150000000E700630063006300630067003B80CA
:104160000A070E0A0000F3C06180330033001E000E
:104170001E000C000A070E0A0000F3C061806D806B
:104180002D003F00330033000807070A0100E766EF
:104190003C183C66E70A0A140A00FDF3C06180334C
:1041A0000033001E001E000C00180018007C0007E1
:1041B00007070A0100FECC183060C6FE040D0D0A88
:1041C00003FE306060606040C0606060606030022C
:1041D0000D0D0A04FEC0C0C0C0C0C0C0C0C0C0C079
:1041E000C0C0040D0D0A03FEC06060606020306036
:1041F00060606060C00803030A010370DB0EFFFF0C
:10420000E0FFD1AFFF32FFD0FFFEFFE0FFD1AEFFF6
:10421000D0FFFEFFE0FFD11000FFFEFFD0FFE0FF68
:10422000C1FFD1AED580A83FD300408D142000A19E
:10423000C8DA1281CFD9F1DB402EA4A6AFFFD0FFA0
:10424000FE00000000250028002B000000000024D4
:104250000027002A00000000002300260029000497
:10426000040404040404040202020202020303031D
:104270000303030102040810204080010204081017
:1042800020010204081020000000080002010000C4
:104290000304070000000000000000008831112422
:1042A0001FBECFEFD8E0DEBFCDBF11E0A0E0B1E090
:1042B000E2E8FCE602C005900D92A83AB107D9F7F2
:1042C00023E0A8EAB1E001C01D92A135B207E1F7F1
:1042D00011E2CFE4D1E204C02197FE010E943936F9
:1042E000CE34D107C9F70E9422320C943F360C9489
:1042F0000000089580E0089580911B0390911C03B5
:10430000009739F120912E03FC01211123C035962D
:10431000E491E0932F03FC013C96E491E093300399
:1043200080912F03082E000C990B20913003821BE3
:10433000910927FD939520913103203441F0829F0C
:10434000C001112426E0969587952A95E1F7809380
:1043500032030895213039F43F96E491E0932F031E
:10436000FC017096DACF3D96E491E0932F03FC01B7
:104370003E96D3CF20911B0330911C032817390799
:1043800061F090931C0380931B030E947C218AE7B9
:1043900091E290932D0380932C0308958091220342
:1043A000803331F48FEF809337038093380308957F
:1043B000883231F0823031F081E080933703089504
:1043C0008FEFFBCF83E0F9CFAF92BF92CF92DF9216
:1043D000EF92FF920F931F93CF93DF936C017B01BA
:1043E0008B01040F151FEB015E01AE18BF08C0174B
:1043F000D10759F06991D601ED91FC910190F081BE
:10440000E02DC6010995892B79F7C501DF91CF9180
:104410001F910F91FF90EF90DF90CF90BF90AF90E2
:104420000895FC01538D448D252F30E0842F90E0BA
:10443000821B930B541710F0CF960895019708959F
:10444000FC01918D828D981761F0A28DAE0FBF2F68
:10445000B11D5D968C91928D9F5F9F73928F90E0BE
:1044600008958FEF9FEF0895FC01918D828D98172D
:1044700031F0828DE80FF11D858D90E008958FEF6A
:104480009FEF0895FC01918D228D892F90E0805C33
:104490009F4F821B91098F739927089586E792E0B9
:1044A0000E94422221E0892B09F420E0822F089506
:1044B00080E090E0892B29F00E944E2281110C941B
:1044C00000000895FC01A48DA80FB92FB11DA35AB7
:1044D000BF4F2C91848D90E001968F739927848F24
:1044E000A689B7892C93A089B1898C918370806447
:1044F0008C93938D848D981306C00288F389E02DE8
:1045000080818F7D80830895EF92FF920F931F9398
:10451000CF93DF93EC0181E0888F9B8D8C8D981376
:104520001AC0E889F989808185FF15C09FB7F89482
:10453000EE89FF896083E889F989808183708064CE
:1045400080839FBF81E090E0DF91CF911F910F9119
:10455000FF90EF900895F62E0B8D10E00F5F1F4F28
:104560000F731127E02E8C8D8E110CC00FB607FC37
:10457000FACFE889F989808185FFF5CFCE010E94C5
:104580006222F1CFEB8DEC0FFD2FF11DE35AFF4FAF
:10459000F0829FB7F8940B8FEA89FB898081806253
:1045A000CFCFCF93DF93EC01888D8823B9F0AA8910
:1045B000BB89E889F9898C9185FD03C0808186FDDE
:1045C0000DC00FB607FCF7CF8C9185FFF2CF80812D
:1045D00085FFEDCFCE010E946222E9CFDF91CF911E
:1045E0000895833081F028F4813099F08230A9F069
:1045F00008958730A9F08830C9F08430B1F48091F3
:1046000080008F7D03C0809180008F778093800031
:10461000089584B58F7784BD089584B58F7DFBCFD1
:104620008091B0008F778093B00008958091B000A2
:104630008F7DF9CFCF93DF93282F30E0F901E95731
:10464000FD4B8491F901ED58FD4BD491F901E15AEC
:10465000FD4BC491CC23A1F081110E94F122EC2FDB
:10466000F0E0EE0FFF1FEB5AFD4BA591B491EC91DA
:10467000ED2381E090E009F480E0DF91CF9108958F
:1046800080E090E0FACFCF93DF9390E0FC01ED580B
:10469000FD4B2491815A9D4BFC0184918823D1F0DC
:1046A00090E0880F991FFC01E55BFD4BA591B4914B
:1046B000FC01EF5BFD4BC591D49161110EC09FB71A
:1046C000F8948C91E22FE0958E238C932881E2233D
:1046D000E8839FBFDF91CF9108958FB7F894EC9155
:1046E000E22BEC938FBFF6CF2FB7F89460914D0279
:1046F00070914E0280914F02909150022FBF089509
:104700000895DC011696ED91FC91179712968C9105
:10471000481B477081E090E001C0880F4A95EAF796
:10472000E60FF11D3081222319F0832B8083089539
:1047300080958323FBCFFB014181DC0112962C91F4
:104740001297421768F013962C911397241740F094
:10475000608115962C91621718F424810C948123A2
:104760000895FC0180819281980F92832181921794
:1047700060F494819F5F94839381890F821710F076
:104780008FEF820F838381E0089580E00895FC011C
:10479000128280818150838314820895DB01ED9120
:1047A000FC9109940F931F93CF93DF931F92CDB782
:1047B000DEB70091190310911A03E0914803F091BC
:1047C000490382E0099530E020E04AE0B80187E142
:1047D00093E00E94CE23182FE0914803F091490303
:1047E00083E00995E0914803F091490380E0099541
:1047F0001123B9F16091190370911A039E012F5F83
:104800003F4F46E487E193E00E94CE238981809365
:1048100017036091190370911A039E012F5F3F4F98
:1048200047E487E193E00E94CE23898180931803B7
:104830006091190370911A0330E020E048E487E1A9
:1048400093E00E94CE23809322036091190370911C
:104850001A032AE433E047E187E193E00E94CE2384
:1048600011E0812F0F90DF91CF911F910F9108954B
:10487000CF93DF9380915003811105C081E0809335
:1048800050030E94D223C0911903D0911A03E091E2
:104890004803F091490382E00995E0914803F091C3
:1048A000490381E0099530E020E044E1BE0187E161
:1048B00093E00E94CE232AE433E047E1BE0187E182
:1048C00093E00E94CE23E0914803F091490380E0F9
:1048D000DF91CF9109940F931F93CF93E09125031C
:1048E000F0912603309719F087E193E00995009144
:1048F000190310911A03E0914803F091490382E0F3
:104900000995E0914803F091490381E0099530E071
:1049100020E045E1B80187E193E00E94CE23C82F53
:10492000882341F02AE433E047E1B80187E193E0CE
:104930000E94CE23E0914803F091490380E009955D
:104940008C2FCF911F910F910895EF92FF920F93AB
:104950001F93CF93DF93082F162FC42FD42FF82E39
:10496000F40EEE24EA948F2D8D1BD83080F58C2F19
:10497000887F800F9C2F96959695969528EF929F0D
:10498000C00D1124CC23C1F197E0C9276091190310
:1049900070911A03809333031093340310923603FB
:1049A000CF5FC7708FEF90E001C0880FCA95EAF71C
:1049B0008093350323E333E04BE387E193E0DF911A
:1049C000CF911F910F91FF90EF900C94CE236091A7
:1049D000190370911A0380933303109334031092D8
:1049E0003603E092350323E333E04BE387E193E0C2
:1049F0000E94CE23D850B7CFDF91CF911F910F9156
:104A0000FF90EF900895CF93DF93D82FC7E344E052
:104A10006C2F8D2F0E94A524CF5FCF33C1F7DF917C
:104A2000CF910895DF92EF92FF920F931F93CF9350
:104A3000DF93182F062FC42FD42FF62EF40EEE245A
:104A4000E394DD24DA948F2D8D1BD83090F58C2FD4
:104A5000887F800F9C2F96959695969528EF929F2C
:104A6000C00D1124CC23D1F197E0C927609119031F
:104A700070911A03109333038093340381E0809381
:104A80003603CF5FC7708FEF90E001C0880FCA95E3
:104A9000EAF78093350323E333E04BE387E193E0C8
:104AA000DF91CF911F910F91FF90EF90DF900C94C9
:104AB000CE236091190370911A03109333038093EE
:104AC0003403E0923603D092350323E333E04BE323
:104AD00087E193E00E94CE23D850B5CFDF91CF91EC
:104AE0001F910F91FF90EF90DF900895962FE3E1D3
:104AF000F3E06681778180A391A323E333E042E36F
:104B000087E193E00C94CE23FF920F931F93CF93F2
:104B1000DF93F82ED62F142FC22F00FF0CC0622F68
:104B20006D1B842F8F0D0E9476256C2F6F198D2F92
:104B3000810F0E94762501FF0CC06C2F6D1B812F09
:104B40008F190E9476256C2F6F19812F8D1B0E9463
:104B5000762503FF0CC06C2F6D0F812F8F0D0E94E7
:104B600076256C2F6F0D8D2F810F0E94762502FF09
:104B700011C06C2F6D0F812F8F190E9476256C2F1D
:104B80006F0D812F8D1BDF91CF911F910F91FF90A2
:104B90000C947625DF91CF911F910F91FF9008958E
:104BA000CF92DF92EF92FF920F931F93CF93DF93F9
:104BB000E82ED62EC42E042F262F482F67E080E043
:104BC0000E948425C0E017E082EFF82EDAEFCF5F75
:104BD0008C2F880F8F5FD80F0C2D2D2D4E2D612F10
:104BE0008C2F0E948425C11748F0DF91CF911F912F
:104BF0000F91FF90EF90DF90CF900895D7FDE7CF12
:104C00001150F394F394DF0DE2CFFC01808D8F5FA0
:104C100008950B96FC01849108950A96FC018491F5
:104C20000895FC01849108950E941126882321F0A3
:104C3000823011F083E0089586E00895FC01E60FCC
:104C4000F11D849190E0982F88273196E4918E0F82
:104C5000911D089568E00C941E2666E00C941E26B3
:104C6000BF92CF92DF92EF92FF920F931F93CF9359
:104C7000DF938C01E62EDC011496CD91DC91CE0100
:104C80000E941126F82EF801848195810E94142635
:104C9000B82EF1E0CC24CA94FF1202C02FE0C22E3D
:104CA000D80114968D919C910E940D26F82EF80142
:104CB000848195810E940926D82ED80114968D9161
:104CC0009C910E942A26B0E6BE1520F5009711F1AE
:104CD000C80FD91F91E6F92EDE1468F5D801509659
:104CE0001C92509753961C92539754961C9254972B
:104CF00051961C92519752961C92D0E0C0E0CE0182
:104D0000DF91CF911F910F91FF90EF90DF90CF90A7
:104D1000BF900895F801848195810E942D26F0E4CA
:104D2000FE1538F4009729F0C80FD91F81E4F82E3A
:104D3000D3CF6196D1CFDF1488F28B2D90E0FE01A6
:104D400024912F3F29F42196FD1441F2F394F7CFDB
:104D5000FE104BC0D80114968D919C910E94112693
:104D60009E012F5F3F4FFE01882311F08230E1F456
:104D70008491D80153968C935397F90124915496BA
:104D80002C935497FE013396E4915096EC935097F0
:104D9000FE013496E4915196EC935197FE013596BD
:104DA000E4915296EC93ABCF8491982F9F709250E0
:104DB000D80152969C93529782958F7051968C93FE
:104DC0005197F9012491822F8F7054968C935497A8
:104DD00022952F7053962C935397FE013296E491AF
:104DE000E295EF705096EC938ACF3296E491EC21E5
:104DF000E80FF92FF11DCE0FDF1FA6CF0F931F93E2
:104E0000CF938C01C0E0F80161918F01662341F0DE
:104E100087E193E00E94302680912703C80FF3CFEB
:104E20008C2FCF911F910F9108952EE93FE00097AD
:104E300009F40895F9013197F1F70197F8CFCF936D
:104E4000DF9300D0CDB7DEB720ED37E03A8329837A
:104E50009091BC00982311F081E00FC029813A8124
:104E6000232B81F48091750281FDF6CF809174022D
:104E700081110DC091E0909374020F900F90DF911B
:104E8000CF91089529813A8121503109DFCF80E007
:104E9000F4CF84EA8093BC0061E080E80E941F2781
:104EA000811102C080E008958091B900887F883028
:104EB00051F0803141F0809174028111F3CF82E092
:104EC00080937402EFCF88E78093BB0084E88093DF
:104ED000BC0062E080E80E941F27882319F38091BC
:104EE000750281FD05C08091B900887F883119F76E
:104EF00081E0089584E98093BC0064E080E10C9433
:104F00001F278093BB0084E88093BC0063E080E8A7
:104F10000E941F278823A1F08091750281FD0DC09A
:104F20008091B900887F883241F0809174028111AC
:104F300006C092E090937402089581E0089580E0A5
:104F40000895109274020895809375021092B9002A
:104F500084FF05C08CE08093B8000C94A12788E4FE
:104F6000FACFCF93DF93FC0123A5222389F0EC0134
:104F70000E944927811104C080E0DF91CF910895FC
:104F80008EA1811107C00E9481278823A9F31BA647
:104F900081E0F3CF80E4F7CF0F931F93CF93DF939C
:104FA000C62FD42F8901633001F138F4613099F0B4
:104FB000623009F449C0C1E012C0663029F167309F
:104FC00091F16530C1F70E94B127811117C00E948D
:104FD0007A27C0E004C0FC0186A50E94A4278C2F7C
:104FE000DF91CF911F910F910895FC0116A221E04E
:104FF00023A74111E0CF0E947A27DDCF8D2F0E9499
:1050000081278111D8CFE3CF0E94B1278823F9F2FD
:10501000DD2389F2F80181918F010E948127882385
:10502000B1F2D150F5CF0E94B127882381F2DD2360
:1050300011F2F80184910E948127C82F882379F208
:105040000F5F1F4FD150F3CFFC0146A321E023A7F0
:10505000B2CFDB011496ED91FC9130E020E065E0E9
:105060000994DB011496ED91FC9130E020E062E0C0
:105070000994DB011496ED91FC9130E020E063E0AF
:105080000994CF92DF92EF92FF920F931F93CF93E9
:10509000DF938C017B016A0180E0F601C4918111EC
:1050A00010C081E0CF3F49F04C2FB701C8010E94EA
:1050B0002928882309F444C080E0BFEFCB1ADB0A1B
:1050C000ECCF4FEFCF3F89F3CE3FD9F1C03FA0F7F0
:1050D000C03E38F04C2F4F70B701C8010E943128F4
:1050E000EBCFC03D38F04C2F4F70B701C8010E9484
:1050F0003928E2CFC03CF8F0D7011496ED91FC912D
:1051000030E020E040E064E0C8010995C295C07F2E
:10511000CE5FD0E0CE010E941527D7011496ED9105
:10512000FC9130E020E041E064E0C8010995CE0147
:105130000E941527C1CFC7FDBFCF8C2F90E0F8CFBD
:1051400080E0DF91CF911F910F91FF90EF90DF9062
:10515000CF900895AF92BF92CF92DF92FF920F93BC
:105160001F93CF93DF936C018B01F42EE90180E153
:10517000481709F47EC0841778F1AAE04A1709F4A9
:1051800061C0BFE04B1709F47FC0F80102811381B1
:10519000F2E3FF1609F4DDC0FF1508F48EC085E1C7
:1051A000F81609F4DBC0A7E1FA1609F4ECC0B4E183
:1051B000FB1265C0D8011696ED91FC9117971596D4
:1051C0008C918E0F9F2F911D11928E179F07E1F7E3
:1051D000C8010E94C72353C0E1E14E1709F451C032
:1051E000F5E14F13D2CFFB01A280B38043E152E43B
:1051F000C6010E944128D50114964C91406BB8011C
:10520000C6010E94292841E0B801C6010E94312848
:10521000F50126813781D8011496ED91FC91D501D5
:1052200015964C9166E0C601099581111CC080E07D
:10523000DF91CF911F910F91FF90DF90CF90BF90A2
:10524000AF900895DB011496ED91FC9130E020E0E1
:1052500042E061E0C60109954BE152E4B801C601A4
:105260000E94412892CF40E0B801C6010E9439282F
:105270008CCF4AE052E4B801C6010E94412881E087
:10528000D7CF4FEF51E4F7CF41E0C6010E94392854
:1052900040E0B801C6010E94312841E8B801C601CA
:1052A0000E9429284881B801C6010E94292840E0AF
:1052B000B801C6010E943928E2CFE6E4FE1609F4DF
:1052C0006CC0F7E4FF1609F46DC08BE3F812D7CF7A
:1052D00099818B8138E0390F813031F0833011F0C2
:1052E000392F02C0392F985021E0D80113964C91E4
:1052F000491708F420E041E0391708F040E091E058
:10530000F8015281351708F490E0322F342B9323A3
:1053100019F4242309F4B3CFFA80D12CC12C8430A2
:1053200048F490E0FC01EA5EFE4FC0808E5E9E4F26
:10533000DC01DC90F7FE04C0BE01C8010E949B2383
:1053400088818C0D888389818D0D8983FF0C91F76D
:1053500096CFBE01C8010E949B2391CFC8010E9435
:10536000B123882309F463CFD8011696ED91FC91FF
:10537000179715968C918E0F9F2F911D11928E1756
:105380009F07E1F77CCF1882F801828189838581AC
:1053900081508A8383818B8372CFD80115968C913B
:1053A00088836DCFF8018181FBCF0F93FC01015001
:1053B000040F84A996A9941788F0081710F404170D
:1053C00078F42150260F83A995A9961758F028172D
:1053D00060F481E0261720F40F910895081778F7FC
:1053E00080E0FACF2817A8F7FBCF81E0F5CF0F9325
:1053F000CF93C82F08E024E047E3682F87E193E0CC
:105400000E94D529882329F08C2FCF910F910C94DD
:105410000325CF910F910895CF92DF92EF92FF92E3
:105420000F931F93CF93DF93D82FF62E142FC22FF5
:10543000022F242F462F682F87E193E00E94D52961
:10544000882309F44CC087E0D82EDD0E97E0C92EE2
:10545000CF0C08EF010F0D0F88EF8C0FE82EEF0C2B
:1054600042E06C2D8D2D0E94D02541E06C2D802FC7
:105470000E94D02544E06E2D8D2D0E94D02548E05D
:105480006E2D802F0E94D02520EFC22EC10E30EF4E
:10549000E32EEC0E48E0D42EDD0E08E00F0D4C2D6F
:1054A0006F2D8D2D0E94A5246FEF6C0F6F0D4C2D6D
:1054B0008D2D0E94A5244E2D602F8D2F0E94122528
:1054C0008FEF810F4E2D602F8D0FDF91CF911F91A8
:1054D0000F91FF90EF90DF90CF900C941225DF9109
:1054E000CF911F910F91FF90EF90DF90CF90089593
:1054F0000F9300E421E040E06FE387E193E00E9436
:10550000D529882331F040E460E08FE30F910C94BB
:1055100012250F9108955F926F927F928F929F92C2
:10552000AF92BF92CF92DF92EF92FF920F931F93B1
:10553000CF93DF93EC01562E142F622F0E9430265A
:105540006C0180E0C114D104B1F08C819D810E9476
:105550001426B82EFB88EC888989580E1E198A8972
:10556000181B0E2D2F2D412F652DCE010E94D52900
:10557000811111C08889DF91CF911F910F91FF9008
:10558000EF90DF90CF90BF90AF909F908F907F90E3
:105590006F905F900895CB0CD11C87E0F80EF694C5
:1055A000F694F694E10E4E01ECE18E0E911C6F2CF8
:1055B000712C1E15F9F2052D560111C0F5018491CB
:1055C0006A817B810C8F1D8F1F8E8E8F94014BE320
:1055D000CE010E94CE23FFEFAF1ABF0A085F8A2DCB
:1055E0008C198F1558F3C60CD71C1F5FE2CFEF92B2
:1055F000FF920F931F93CF93DF93F82E062FE42E85
:10560000152FE0912C03F0912D0387E193E009958C
:10561000080FCE2DD12F10E02991211108C0812F24
:10562000DF91CF911F910F91FF90EF900895402F40
:105630006F2D87E193E00E948B2AF80E180FECCFB4
:10564000CF92DF92EF92FF920F931F93CF93DF934E
:1056500082E00E941A23EC01E4E9F2E48491E0E89C
:10566000F2E40491ECE6F2E414911123A1F081112B
:105670000E94F122E12FF0E0EE0FFF1FEF5BFD4BE8
:10568000A591B4918FB7F894EC91C1111DC000950C
:105690000E230C938FBF8091470281113CC021974C
:1056A000A9F40E9474236093430270934402809390
:1056B000450290934602DF91CF911F910F91FF9089
:1056C000EF90DF90CF9008950E2BE3CF0E947423CC
:1056D000009143021091440220914502309146020C
:1056E000601B710B820B930B693771058105910566
:1056F00010F30E94742360934302709344028093DA
:1057000045029093460281E0809347021092420244
:1057100010924102D0CF0E94742300914302109155
:10572000440220914502309146026B017C01C01A6F
:10573000D10AE20AF30A970186010F5F1F4F2F4F2C
:105740003F4F73E036952795179507957A95D1F7D2
:105750000E94742360934302709344028093450235
:1057600090934602409140022091410230914202C2
:10577000EBE0EE2EF12C0115110509F467C0243081
:10578000310588F42115310509F440E0842F90E0BB
:1057900095958795482F209709F448602F5F3F4FD4
:1057A00001501109E8CFC9010497B7010E940336DF
:1057B000009799F42430310589F3C130D10571F394
:1057C00040934002309342022093410230936D0295
:1057D00020936C02109247026ECF8930910568F4D5
:1057E000FB01E85DFD4F808190E0959587952097BE
:1057F00011F08083D3CF8068FCCF209709F70A97F8
:1058000069F601301105B1F0409340023093420235
:10581000209341021092730240936B02E8E2F2E09F
:105820006C177D0760F08191DE01AD5ABD4F8C93FE
:105830002196F6CF6731710509F0B0CFE5CF6F5FE4
:10584000609373020031110508F260CF409340026B
:1058500030934202209341022ECF8EEB9AE30E94B6
:10586000BA2181E080932E030E947C210E94CE21E8
:1058700085E096E290932D0380932C030E943824B8
:105880002FE34FE760E080E00E940C2A48E351E0FC
:1058900069E18FE00E94F72A0E946B248111F0CF0A
:1058A0000895DF92EF92FF920F931F93CF93DF93B0
:1058B000EC01D62E1CAD0BAD7C0184E0E80EF11C92
:1058C000E98DFA8DC7010995412F480F2D2D602FC5
:1058D000C7010E948B2A9BAD890F8BAF81E090E0BE
:1058E000DF91CF911F910F91FF90EF90DF9008957E
:1058F000089590E080E00895FB0101900020E9F711
:105900003197AF01461B570BDC01ED91FC910280F2
:10591000F381E02D09948F929F92AF92BF92EF9204
:10592000FF920F931F93CF93DF93CDB7DEB7A1976D
:105930000FB6F894DEBF0FBECDBF7C01FA01CB01DC
:1059400019A2223008F42AE08E010F5D1F4F822E2B
:10595000912CB12CA12CBF01A50194010E941736F6
:10596000F901CA016A300CF5605DD8016E938D01B2
:10597000232B242B252B79F790E080E0109721F042
:10598000BD01C7010E947C2CA1960FB6F894DEBF22
:105990000FBECDBFDF91CF911F910F91FF90EF9080
:1059A000BF90AF909F908F900895695CDECFCF92AB
:1059B000DF92EF92FF92CF93DF936C01990FEE0885
:1059C000FF086A307105F1F42AE0F7FE1CC06DE2B1
:1059D00083E193E00E94512CEC0144275527BA0142
:1059E0004C195D096E097F092AE083E193E00E946A
:1059F0008B2C8C0F9D1FDF91CF91FF90EF90DF904C
:105A0000CF900895262FB701A60183E193E0DF919F
:105A1000CF91FF90EF90DF90CF900C948B2CCF9391
:105A2000DF93BC0186E792E00E947C2CEC0162E4EB
:105A300071E086E792E00E947C2C8C0F9D1FDF9125
:105A4000CF9108954F925F926F927F928F929F9223
:105A5000AF92BF92CF92DF92EF92FF920F931F937C
:105A6000CF93DF9300D000D0CDB7DEB78091510245
:105A7000909152028130910509F0B9C088E690E01A
:105A80000E94BA2181E080932E030E947C210E9413
:105A9000CE2185E096E290932D0380932C036091B4
:105AA0005B0270E090E080E00E94D03426EB33EFA0
:105AB0004DEC5FE30E9426340E949834CB014AE00B
:105AC000BE016F5F7F4F0E947F336091570279E183
:105AD000672E669DB0011124072E000C880B990BD0
